{
  "contractName": "BuyNFT",
  "abi": [
    {
      "inputs": [
        {
          "internalType": "uint256",
          "name": "",
          "type": "uint256"
        }
      ],
      "name": "item",
      "outputs": [
        {
          "internalType": "address",
          "name": "",
          "type": "address"
        }
      ],
      "stateMutability": "view",
      "type": "function",
      "constant": true
    },
    {
      "inputs": [
        {
          "internalType": "uint256",
          "name": "itemId",
          "type": "uint256"
        }
      ],
      "name": "buyItem",
      "outputs": [
        {
          "internalType": "uint256",
          "name": "",
          "type": "uint256"
        }
      ],
      "stateMutability": "payable",
      "type": "function",
      "payable": true
    },
    {
      "inputs": [],
      "name": "getItems",
      "outputs": [
        {
          "internalType": "address[8]",
          "name": "",
          "type": "address[8]"
        }
      ],
      "stateMutability": "view",
      "type": "function",
      "constant": true
    }
  ],
  "bytecode": "0x608060405234801561001057600080fd5b5061043e806100206000396000f3fe6080604052600436106100345760003560e01c8063410d59cc14610039578063898e621914610064578063e7fb74c7146100a1575b600080fd5b34801561004557600080fd5b5061004e6100d1565b60405161005b919061031d565b60405180910390f35b34801561007057600080fd5b5061008b60048036038101906100869190610239565b610152565b6040516100989190610302565b60405180910390f35b6100bb60048036038101906100b69190610239565b610188565b6040516100c89190610339565b60405180910390f35b6100d9610201565b6000600880602002604051908101604052809291908260088015610148576020028201915b8160009054906101000a900473ffffffffffffffffffffffffffffffffffffffff1673ffffffffffffffffffffffffffffffffffffffff16815260200190600101908083116100fe575b5050505050905090565b6000816008811061016257600080fd5b016000915054906101000a900473ffffffffffffffffffffffffffffffffffffffff1681565b60006001821015801561019c575060078211155b6101a557600080fd5b33600083600881106101ba576101b96103bd565b5b0160006101000a81548173ffffffffffffffffffffffffffffffffffffffff021916908373ffffffffffffffffffffffffffffffffffffffff160217905550819050919050565b604051806101000160405280600890602082028036833780820191505090505090565b600081359050610233816103f1565b92915050565b60006020828403121561024f5761024e6103ec565b5b600061025d84828501610224565b91505092915050565b6000610272838361027e565b60208301905092915050565b61028781610381565b82525050565b61029681610381565b82525050565b6102a58161035e565b6102af8184610376565b92506102ba82610354565b8060005b838110156102eb5781516102d28782610266565b96506102dd83610369565b9250506001810190506102be565b505050505050565b6102fc816103b3565b82525050565b6000602082019050610317600083018461028d565b92915050565b600061010082019050610333600083018461029c565b92915050565b600060208201905061034e60008301846102f3565b92915050565b6000819050919050565b600060089050919050565b6000602082019050919050565b600081905092915050565b600061038c82610393565b9050919050565b600073ffffffffffffffffffffffffffffffffffffffff82169050919050565b6000819050919050565b7f4e487b7100000000000000000000000000000000000000000000000000000000600052603260045260246000fd5b600080fd5b6103fa816103b3565b811461040557600080fd5b5056fea2646970667358221220b521fd946248b8a585b320d3dbe4993d1967a2d916feb7bc06992acecea7ddee64736f6c63430008070033",
  "immutableReferences": {},
  "source": "// SPDX-License-Identifier: MIT\npragma solidity >=0.8.0 <0.9.0;\n\ncontract BuyNFT {\n  address[8] public item;\n\n  function buyItem(uint itemId) public payable returns (uint) {\n    require(itemId >= 1 && itemId <= 7);\n    item[itemId] = msg.sender;\n    return itemId;\n  }\n\n  function getItems() public view returns (address[8] memory) {\n    return item;\n  }\n}\n",
  "sourcePath": "C:\\Users\\KIIT\\Desktop\\oneperceNFT\\contracts\\BuyNFT.sol",
  "compiler": {
    "name": "solc",
    "version": "0.8.7+commit.e28d00a7.Emscripten.clang"
  },
  "schemaVersion": "3.4.3",
  "updatedAt": "2021-09-21T07:05:15.682Z",
  "networkType": "ethereum",
  "devdoc": {
    "kind": "dev",
    "methods": {},
    "version": 1
  },
  "userdoc": {
    "kind": "user",
    "methods": {},
    "version": 1
  }
}